S02B0000443A5C4D61696E5C5265706F735C654D6F74655C4D6963726F4672616D65776F726B504B5F76345FB3
S3156000000000C00020F10100002D23000097220000AF
S315600000102D2300002D2300002D230000000000008A
S31560000020000000000000000000000000BB2200008D
S315600000302D23000000000000EB2200001B230000BF
S315600000402D2300003F230000891B0000A71B000032
S315600000508524000097240000A9240000BB2400002A
S31560000060CD240000DF240000CB1E0000E91E000046
S31560000070F12400003524000089230000C723000016
S315600000800325000015250000272500005B130000EE
S3156000009005240000392500004B2500005D25000081
S315600000A06F250000812500009325000003160000DF
S315600000B0A5250000B7250000C9250000DB25000046
S315600000C0ED250000FF250000112600002326000014
S315600000D03526000047260000592600006B260000E2
S315600000E07D2600008F260000A1260000B3260000B2
S315600000F0C5260000D7260000E9260000FB26000082
S315600001000D2700001F27000031270000432700004D
S315600001105527000067270000792700008B2700001D
S315600001209D270000AF270000C1270000D3270000ED
S31560000130E5270000F7270000092800001B280000BB
S315600001402D2800003F280000512800006328000089
S31560000150752800008728000099280000AB28000059
S31560000160BD280000CF280000E1280000F328000029
S315600001700529000017290000292900003B290000F5
S315600001800000000000000000000000000000000009
S3156000019000000000000000000000000000000000F9
S315600001A000000000000000000000000000000000E9
S315600001B000000000000000000000000000000000D9
S315600001C000000000000000000000000000000000C9
S315600001D000000000000000000000000000000000B9
S315600001E05FF8E0F1EFBEADDEF10100000000000057
S315600001F0044880F3088800F007F800F038FE00F045
S3156000020037F970470010002040F200024FF47E4339
S31560000210C0F20002C0F2FF03134002F07F42B2F167
S31560000220005F4EF60852CEF2000208BF43F000535C
S3156000023013607047814230B515D0034602F003045F
S3156000024022F00302D51AE84204D053F8045B41F861
S31560000250045BF7E701391A19934204D013F8010BCE
S3156000026001F8010FF8E730BD40F2000241F20801E3
S3156000027046F2105008B5C0F20002C2F20001C6F2A2
S315600002800000FFF7D7FF41F2747241F2100146F2A7
S315600002901050C0F20002C2F20001C6F20000FFF781
S315600002A0C9FF40F6346341F64C12C0F20003C2F255
S315600002B0000223F0030300211BB142F8041F043B34
S315600002C0FAE708BD07B541F2004141F22042C2F2A9
S315600002D00001C2F20002009145F2F441202301932D
S315600002E01268C0F20501002000F03FF803B05DF827
S315600002F004FB2DE9F0431C4680468946073383B0EC
S3156000030023F0070302AFADEB030D02AD00211646E5
S315600003102846224602F0F8FF00942B463A6A494680
S31560000320404600F042F840B922463146284602F07F
S31560000330D1FFB0FA80F0400900E000200437BD46E6
S31560000340BDE8F083012830B406D830BC4FF4704065
S31560000350C6F20000FFF7CDBF002030BC704741F603
S315600003605010C2F2000000F0B2BD37B5079DAB4237
S3156000037001D1202B01D0002010E0069C019300944F
S31560000380FFF7E0FF50B10A244FF47A720021202073
S3156000039000F05DFE013CF7D1FFF7E1FF03B030BD31
S315600003A04FF44040C2F20000704710B514460A464A
S315600003B00146204601F0F8FC40B210BD30B5054656
S315600003C0ADF5017D134668460A464FF4007102F0AA
S315600003D0D9FF05F47F43B3F5007F044605D0B3F536
S315600003E0407F02D0B3F5807F04D122466946284615
S315600003F000F050FD20460DF5017D30BD41F2A04371
S31560000400C2F200030A4601465869FFF7D7BF0FB428
S3156000041007B504A951F8040B0191FFF7EFFF03B08C
S315600004205DF804EB04B0704713B500F012FA0024CF
S3156000043000F079F902A941F8044D6846009402F08B
S315600004408CFB9DE8030002F09AFA00F0D4FD01F0FF
S31560000450A7FD01F0B2FD204602F0AFFB00F09DFA69
S3156000046000F088FA00F0CCFC00F018FD02B010BD78
S3156000047008B540F2000242F2A413C0F20002C2F2D2
S31560000480000342F2A8141A6046F20C5346F2973102
S31560000490C2F20004C0F20003C0F200010020236033
S315600004A002F010FF41F27473C0F2000322681A442E
S315600004B040F20003C0F200031344236002F058FACE
S315600004C001F073FD00F041F800F04CFDFFF7ACFF62
S315600004D0002001F044FC01214EF6602000F00AF98C
S315600004E00121022000F008F90121084600F000F918
S315600004F0FFF7E8FE01F05EFD42F28C13C2F20003E4
S3156000050053F82020013243F82020704742F28C13C2
S31560000510C2F2000353F82020013A43F820207047C6
S3156000052042F28C13C2F2000353F820000028D4BFB5
S31560000530002001207047FF2301280B7004BF0023B1
S315600005400B70704700230B70704710B542F2AC1405
S31560000550C2F200042068012809D042F2B0100121DD
S31560000560C2F2000002F0EFFB08B10120206010BD6E
S31560000570F0B542F2B01487B00E461F4606A90023B6
S31560000580054601F8013D9DF83800FFF7D4FFC2F239
S3156000059000040D9B9DF8170002930C9B29464FF4AF
S315600005A0227501930097134605FB0040324602F020
S315600005B0E7FB00280CBF6FF00100012007B0F0BD1B
S315600005C013B5002302A901F8013DFFF7BBFF42F214
S315600005D0B013C2F200039DF8072001464FF4227063
S315600005E000FB023002F0B8FC00280CBF4FF0FF3071
S315600005F0012002B010BD13B5002302A901F8013D28
S31560000600FFF7A0FF42F2B013C2F200039DF8072085
S3156000061001464FF4227000FB023002F01FFC431CBF
S315600006200CBF4FF0FF30012002B010BDF0B542F2B2
S31560000630B01485B00E461F4604A90023054601F88E
S31560000640013DFFF77FFFC2F200049DF80F002946C7
S315600006504FF4227513460097324605FB004002F0C0
S31560000660DDFB00280CBF4FF0FF30012005B0F0BD68
S3156000067037B514461D4602A9002301F8013DFFF770
S3156000068061FF01222046294601F03FFD03B030BDDF
S3156000069007B5002302A901F8013DFFF753FF0120CA
S315600006A001F008FD03B05DF804FB07B5002302A95D
S315600006B001F8013DFFF746FF012001F01DFD03B083
S315600006C05DF804FB10B50120FFF7EFFF044642F228
S315600006D0B010C2F2000002F0D4FB0023994208BFBA
S315600006E0A04222463CBF0B4602461946104610BD44
S315600006F000207047002070470020704768B161B1E4
S3156000070088420AD04A680B6802B1136003B15A6026
S31560000710436881E8090041601960704703680BB15E
S3156000072040681847704742F23843C2F200031A1D08
S315600007301A6000225A609B6070472DE9F74FDDE929
S315600007400C8942F23847C2F200073B6804461A68D1
S315600007500D46019742B1D3E90423994208BF9042FE
S3156000076034BF0326002600E0052642F24847C2F25F
S315600007700007D7E9000150EA010312D100F0FEFB41
S3156000078004464FF407400D46C0F29330012101F054
S31560000790DBFC221845F1000310461946C7E9000143
S315600007A03CE000F0EBFBD7E900238B4208BF8242B6
S315600007B082468B4627D2FFF785FFA94208BFA04233
S315600007C03CBF0D460446AB4508BFA24526D2B4EBF6
S315600007D00A0065EB0B0100F0D7FB41F287339842C4
S315600007E006F0010306D9CBB100F0FEFB42464B464C
S315600007F0302011E01BB12046294600F0CDFB424671
S315600008004B46202008E0F20708D52046294600F02E
S31560000810C3FB42464B46002001F0CBFB16F0060FA9
S315600008200FD0B30704D5019B1B68D3E9040103E02D
S315600008304FF6FF714FF0FF3003B0BDE8F04F00F0A8
S31560000840ABBB03B0BDE8F08F0068003018BF012075
S31560000850704742F25043C2F200031A1D1A6000222A
S315600008605A609B60704713B5836804466BB100217C
S31560000870684602F0AAF942F254402146C2F20000EC
S31560000880FFF73CFF684602F0B0F902B010BD08B54C
S3156000089082691AB10830FFF741FF08BDBDE808401C
S315600008A0FFF7E1BF0023036043608160C260704769
S315600008B04268036802B1136003B15A6000230360A3
S315600008C04360704737B50021684602F07EF942F210
S315600008D03843C2F200031C6825689DB1102000F001
S315600008E098FB2046FFF7E4FF2B6813B1D5E90401B6
S315600008F003E04FF6FF714FF0FF3000F04DFB2046EE
S31560000900FFF7C5FF684602F070F903B030BD10B559
S315600009100468206818B12046FFF7CAFF204610BD5C
S3156000092030B585B00021684602F04FF942F250407A
S31560000930C2F20000FFF7EBFF0446A8B1022002AD49
S315600009400834FFF7D9FD94E8030085E8030068469C
S3156000095002F020F92846FFF7E1FE684602F03AF910
S315600009600220FFF7D3FD0124684602F03EF92046D7
S3156000097005B030BD41F2604241F26C4142F25C40EA
S315600009800023C2F20002C2F20001C2F2000000F0CF
S3156000099019B88368C0689B68184742F26C43C2F214
S315600009A000031A1D1A6000225A609B6042F2784367
S315600009B0C2F200031A6042F27C43C2F200030122D3
S315600009C01A60704710B504468160C26000202060DE
S315600009D060602BB942F27043C2F200032BB911E09A
S315600009E00B681046984770B1F4E79C420AD061687C
S315600009F0226801B10A6002B151605A682360626080
S31560000A005C601460012010BD42F27C43C2F20003B8
S31560000A10186840B142F26C43C2F20003186803687A
S31560000A20002B08BF0020704705C810447047F0B51A
S31560000A300446406A8BB050B14368002B65D0FFF71F
S31560000A40A8FF6E460246234604F1280701E00346E6
S31560000A505BE0354618685968083303C5BB422E46C5
S31560000A60F7D11425A3697BB96369002B3ED1626A0D
S31560000A705068606200283DD04268002A3AD0FFF78D
S31560000A8088FF0246436931E0013BA3610023606948
S31560000A90916905FB001113B1CB68013BA361A369A2
S31560000AA00C2043430869C65C20698642DAD1127815
S31560000AB012F0020FE26914BF42F0010222F0010255
S31560000AC0E2618A68E26008690D681844406800FB64
S31560000AD00250206009690B4499685B68CB1A03FB76
S31560000AE0022200236360A26001230EE0013B636182
S31560000AF00123CCE76A460AAE154603CDB5422060AF
S31560000B0061602A4604F10804F6D118460BB0F0BDC0
S31560000B102DE9F04F1D6814246C434FF00C094FF01B
S31560000B2000084669B5422AD2099E87693668274415
S31560000B3009FB06FED7F80CA056451ADAD7F810C09E
S31560000B400CEB0E0B1CF80EC08C450CD1DBF80400C8
S31560000B50BC68396804FB001111601D60099B0120A7
S31560000B601E60BDE8F08F0EF10C0E0029EED0013646
S31560000B70E2E7099E0135C6F800801434D1E700200B
S31560000B80BDE8F08F2DE9F041034604468CB0426A19
S31560000B9002AE00F12807354618685968083303C560
S31560000BA0BB422E46F7D132B9FFF72EFF606278B1AD
S31560000BB003687BB90CE0A3690133A36104F11406F1
S31560000BC004F118070025606A90B10368EBB90FE07D
S31560000BD0104656E0FFF7DDFE037813F0020FE36977
S31560000BE003D043F00103E361E8E723F00103FAE78A
S31560000BF002AA0CAD134603CBAB42206061601A4675
S31560000C0004F10804F6D100203BE0D4F81080FFF729
S31560000C10C0FE0097334622464146FFF779FFE0B1B2
S31560000C20606AFFF7B6FE62698369142101FB0233CD
S31560000C300022A16962600C224A43186910448168E7
S31560000C404068081A996800FB0111A1609968012043
S31560000C50E1601B699B5C236213E0636A18686062EB
S31560000C6003685BB1FFF795FE037813F0020FE36943
S31560000C7014BF43F0010323F00103E3616561A561DD
S31560000C80A1E70CB0BDE8F08142F27843C2F20003FE
S31560000C9070B51B6804460E461546F3B1282200213E
S31560000CA002F032FB266185B12B6873B14FF0FF33DA
S31560000CB0A36165622846FFF76CFE037813F0020FA6
S31560000CC0E36907D043F00103E3612046BDE8704065
S31560000CD0FFF758BF23F00103F6E7184670BD002200
S31560000CE0FFF7D2BF2DE9F84F0446406A884616469C
S31560000CF028B303681BB329BB21E06068A568331875
S31560000D00AB4227D835469AF800309B0724D5B9F10F
S31560000D10000F05D121684FF001090144C8F80010A1
S31560000D206368761B2F441D4465602EB36268A368B2
S31560000D309A42E2D12046FFF725FF0028DDD1002048
S31560000D40BDE8F88FFFF725FE4FF000098246D8F818
S31560000D500070EAE72D1AD6E7D4F824E02168DEF8B9
S31560000D6008300144D3F80CB02A463B46DEF80C0046
S31560000D70D8470028D4D1E2E70120BDE8F88F012AE0
S31560000D8038B5054604D005D3022A2ED1836802E021
S31560000D90436800E0002301F100420232012A0ED8C6
S31560000DA0E8686FF00044B3FBF0F2A14200FB123238
S31560000DB001D1811A03E00AB1514200E04142CC18E8
S31560000DC0AB689C420CDB2846E41AFFF7DBFE002882
S31560000DD0F6D10AE02846FFF72AFE30B1AB681C441C
S31560000DE0002CF7DB6C60012038BD002038BDF0B404
S31560000DF0049D002414601C602C60F0BCFFF788BE64
S31560000E0042F26C43C2F20003F0B51E6887B00EB9B9
S31560000E1000202AE042F27843C2F200031A681D46B7
S31560000E20002AF5D11F4601243368D3B1B368F06850
S31560000E301B68984718B1003418BF012400E00446C7
S31560000E403046FFF7A6FD04AB009305AA03AB30213D
S31560000E50FFF7CDFF18B12B68002BD9D13E603668FD
S31560000E60E2E72B68002BD3D0204607B0F0BD08B56B
S31560000E70FFF7FAF94EF21003CEF2000300221A6071
S31560000E801346C4F20823C3F88021C3F8802408BD42
S31560000E90012070470020704701207047704770B589
S31560000EA0044600680D46FFF7F7FF42F2A013C2F250
S31560000EB000031B7813B92068FFF7EAFF002001F0F2
S31560000EC079FE00F055F86B68BDE8704018472DE96B
S31560000ED0F04194B014AD0024074645F8504D2021EA
S31560000EE00AA80195FFF7FBFE38B9002037E0082C09
S31560000EF022D10AA8FFF746FE50B30AA8FFF794FD71
S31560000F0004220DEB020106460AA8FFF7EBFE019BE1
S31560000F10D3F80080FFF744FA8045E8D146F2802096
S31560000F203146C0F20000FFF772FA14AB03EB84039C
S31560000F3043F8486C0134DAE7002301226FF0004180
S31560000F400AA88DE82800FFF71AFF0028D5D1D0E758
S31560000F50002CCAD038460299FFF7A1FF012014B0D1
S31560000F60BDE8F08142F2F850C2F2000002F0E2B849
S31560000F7042F2F850C2F2000002F01BB942F2F85099
S31560000F80C2F2000002F029B9024642F2F8500B465E
S31560000F90C2F2000002F072B94FF6FF734FF0FF32F3
S31560000FA0994208BF904270B504460D4607D1BDE828
S31560000FB0704042F2F850C2F2000002F011B9FFF739
S31560000FC0DDFFA94208BFA04203D2221A65EB0103E6
S31560000FD002E04FF49672002342F2F850BDE870408A
S31560000FE0C2F2000002F0FFB8014642F2F850C2F2C7
S31560000FF0000002F024B942F28043C2F200030022EC
S315600010001A605A6042F2A443C2F2000301201A60D9
S31560001010704713B504460021684601F0D6FD42F2DA
S31560001020A443C2F200031A6814431C6042F2A04350
S31560001030C2F200031A682AB142F2A843C2F2000360
S3156000104018689047684601F0D0FD02B010BD2DE9E2
S31560001050F04F814685B010460D46012101F04EF8ED
S3156000106042F2A44806460F4602A8002101F0ADFDF3
S31560001070FFF784FFC2F2000836184F414FF0010BAC
S315600010804FF0000AD8F8003015EA030423D1FFF7C1
S3156000109075FFB94208BFB0421DD2BBF1000F0DD03B
S315600010A00220FFF73DFA48B902A801F073FDFFF789
S315600010B037FC834602A801F08DFDE3E74A463046D9
S315600010C039468DE82004FFF738FB02A801F06AFD77
S315600010D04FF0010BD6E702A801F087FD204605B068
S315600010E0BDE8F08F10B542F2C844C2F2000422682F
S315600010F0014662B142F2D443C2F2000318689047D7
S3156000110042F2B843C2F20003002222601A7010BD98
S315600011104FF4C043C4F201031A6822F004021A6055
S315600011205A68D207FCD5986170474FF4C043C4F241
S31560001130010313B51A6822F004021A605A6802F0B5
S31560001140010201920022019C0CB9114609E08A4213
S3156000115007D0845C01321C615C6804F00104019470
S31560001160F1E7084602B010BD42F2BC43C2F200038A
S315600011701B6803B11847704708B542F2B843C2F21C
S3156000118000031B7893B142F2CC43C2F20003188885
S3156000119080B2FFF7A7FF4FF4C043C4F201031A6899
S315600011A042F001021A601A68D207FCD408BD70B515
S315600011B042F2BC464FF461444FF4C042C4F20102AD
S315600011C0CEF20004C2F2000600234FF40025C4F8F4
S315600011D080509360C4F88051306042F2B840C2F2E9
S315600011E00000037042F2D940C2F20000037042F27E
S315600011F0B440C2F20000036042F2C040C2F2000096
S31560001200038042F2C440C2F20000036042F2D04062
S31560001210C2F20000036042F2D440C2F200000160F4
S3156000122042F2AC41C2F200010B8042F2CC41C2F202
S3156000123000010B8042F2C841C2F200010B6042F22B
S31560001240D841C2F200010B70136823F020031360CB
S31560001250136843F010031360936823F001039360EF
S31560001260936843F002039360256070BD2DE9F047F3
S3156000127098464FF4C0444FF46143CEF20003C4F283
S315600012800104002591464FF40022C3F88020A56032
S31560001290C3F8802182460F46FFF76EFF42F2B441E3
S315600012A0C2F2000142F2D9460D6042F2C041C2F27A
S315600012B00006C2F2000186F800A042F2B8430D8033
S315600012C042F2C441C2F20003C2F2000101221A7066
S315600012D00D6042F2CC4342F2D041C2F20003C2F248
S315600012E000010D601D8042F2B043C2F2000342F27B
S315600012F0AC421D6042F2D44142F2C843C2F20002DF
S31560001300C2F20003C2F20001A2F80080089A3078A7
S315600013101A60C1F80090FFF7FBFE236843F00403F0
S31560001320236023465A68D207FCD55F611A68032199
S3156000133022F004021A6042F2D842C2F20002117030
S315600013409A6842F002029A604FF46143CEF200035B
S315600013504FF400221A60BDE8F087F8B54FF4C04339
S31560001360C4F201035E68F2B29E681640B20740F1AD
S315600013709A8042F2D844C2F200041869237820F4B5
S31560001380FF4525F07F05ADB2C0B2052B00F2868021
S31560001390DFE803F00380801E3B74002D00F083803D
S315600013A0F12878D142F2CC4342F2D442C2F2000331
S315600013B0C2F2000200251D8011681A8892B2885414
S315600013C01A88013292B21A801B889BB2CD541AE0F9
S315600013D0002D68D042F2D943C2F200031B789842CE
S315600013E059D142F2CC4342F2D441C2F20003C2F276
S315600013F0000100221A801A88096892B288541A88F5
S31560001400013292B21A8004234CE0002D43D142F29D
S31560001410D443C2F20003196842F2CC43C2F200031D
S315600014201A8892B20A4412F8012CF12A1A460AD195
S315600014301A881B8892B29BB288540B4413F8010C2D
S31560001440FFF792FE24E042F2AC45C2F200051B882B
S315600014502D889BB2AB4206D213889BB2C8541388C0
S3156000146001339BB2138042F2CC431288C2F200036E
S3156000147092B2954217D1188880B210E05DB942F2F7
S31560001480D443C2F200031B6858700220FFF72AFE9D
S31560001490257008E03DB1FFF767FE04E00020FFF726
S315600014A021FE00232370F30740F1AA8042F2D8445C
S315600014B0C2F2000423782646022B2AD0052B4FD091
S315600014C0012B40F0908042F2C045C2F200052B88A5
S315600014D09BB2002B3FD042F2B446C2F20006298886
S315600014E0376889B23846FFF720FE2B889BB2984250
S315600014F005D22B881B1A9BB22B8038441FE0002331
S315600015002B8042F2D043C2F200031B680BB3022366
S3156000151075E042F2D045C2F200052B68DBB142F2BB
S31560001520C446C2F2000629683068FFF7FEFD2B68E4
S31560001530984206D22B681B1A2B60336818443060B9
S31560001540F8BD4FF4C043C4F201039A6822F0010269
S315600015509A60032353E000BEBDE8F840FFF70CBE77
S3156000156042F2D043C2F200031A681C46DAB942F26C
S31560001570B043C2F200031B6893B142F2C440C2F2A8
S3156000158000009847206023686BB94FF4C043C4F2EB
S3156000159001039A6822F001029A600323337002E025
S315600015A000BEFFF7E9FD42F2D0452368C2F20005AE
S315600015B053B94FF4C043C4F201039A6822F00102A2
S315600015C09A6003233370F8BD42F2C444C2F2000449
S315600015D029682068FFF7A9FD2B681B1A2B60236812
S315600015E018442060F8BD4FF4C043C4F201039A6802
S315600015F0002022F001029A60FFF774FD0023237039
S31560001600F8BD684620F007018D4619B54FF4804352
S31560001610C4F201031B6813F4706F2CD042F2F442DB
S31560001620C2F2000211684FF420734B4303F1844306
S3156000163003F52013D3F80832144643B142F2DC4373
S31560001640C2F20003022018705B6803B198472268F3
S315600016504FF42073534303F1844303F52013D3F807
S315600016600C3243B142F2DC43C2F20003032018702D
S315600016705B6803B198474FF48043C4F201031B686B
S3156000168013F4704F08D042F2DC43C2F20003042028
S3156000169018705B6803B1984700220421C4F22822BF
S315600016A0C4F228210123C2F8C831C2F8803AC2F8D0
S315600016B04834C1F8803AC2F8C836C1F8843AC2F8EC
S315600016C04839C1F8883ABDE81940854670474209ED
S315600016D0012300F01F0003FA00F04FF46143CEF2DD
S315600016E0000343F8220070474309012200F01F00FF
S315600016F002FA00F04FF46142CEF20002203342F863
S31560001700230070472DE9F04303684FF4805219684F
S31560001710D3F818C0D3F804E09F6A1E6B5D6BDC6972
S3156000172042F28063C2F2000398424FF40043C4F26F
S3156000173003031BD1C4F200024FF00208026080F876
S315600017400480D3F848804FF0040948F40078C3F861
S3156000175048804FF46148CEF20008C8F88091D3F80B
S31560001760488028F40078C3F8488015E0C4F2010286
S315600017700260032202719A6C4FF0080842F480629C
S315600017809A644FF46142CEF20002C2F880819A6C8C
S3156000179022F480629A640268136823F0004313603F
S315600017A0026821F0010313600368C3F818C0036878
S315600017B0C3F804E00268136843F00103136003682A
S315600017C09F6203681E6303685D630368DC61BDE84E
S315600017D0F0830168C2688B6813F4807F036908D15F
S315600017E0934206D28268D35C4B610369013303611D
S315600017F0EFE793420CD2436A7BB97047C36981694C
S315600018008B42F8D24169CB5C5361C3690133C361D2
S3156000181002689368DB05EED4F0E70269C3689A4212
S315600018200DD3C26983699A4209D3212201688B6804
S3156000183013F4807303D1013A01D04B61F6E7704728
S3156000184013B590F880300446022B0BD123689A6852
S31560001850500622D41A690092626F002AF7D0009867
S315600018609047F3E7012B01D0036810E023689A687C
S31560001870510612D41B69E26A0193236B93423EBF01
S315600018800199A26AD154236B01332363EEE79A6808
S31560001890520602D41A690092F9E702B010BD42F20C
S315600018A08063C2F2000373B598420446056806D0A9
S315600018B042F2FC53C2F20003984200D000BE2B6A8B
S315600018C098072CD594F88030022B0FD123689A683C
S315600018D0510607D41A690192626F002AF7D00198FF
S315600018E09047F3E723680222DA6018E0012B10D1F3
S315600018F023689A685206F5D41B69E26A0193236BE2
S3156000190093423EBF0199A26AD154236B013323638C
S31560001910EEE7AB685B06E5D42B690193F9E72B6AC2
S31560001920DE070DD594F88030022B03D12368A26FB1
S315600019305A6102E02046FFF74CFF23680122DA6015
S315600019402B6AD80614D52046FFF77AFF236A2BB197
S31560001950A06A216B98472046FFF73BFF2268012368
S315600019606362936A23F01003936223681022DA603D
S315600019702B6A59070AD522682046D36A43F00403C6
S31560001980D362FFF7BFFE23680422DA602B6A1A0768
S315600019901FD52268D36A43F00803D36294F8803077
S315600019A0022B0CD12268136823F47F0323F47F4350
S315600019B043F4807313602368A26F5A6106E0012BBB
S315600019C004D1002323612046FFF703FF2368082222
S315600019D0DA602B6A9B0625D52046FFF731FF236A1E
S315600019E0266B63B1002363626361A361E36123686D
S315600019F01022DA602268936A43F0100393622268C9
S31560001A0000252561D36A204643F00C03D362FFF7B5
S31560001A10E0FEE36F256313B13146A06A98472368F9
S31560001A202022DA6002B070BD38B542F28063C2F23D
S31560001A300003984204461D4606D042F2FC53C2F2A9
S31560001A400003984200D000BE94F90400FFF74CFEF4
S31560001A5084220021204601F057FC0123636223465D
S31560001A6004F140024FF0FF31596308339342FBD1D2
S31560001A704FF40043AC424FF48052C4F2030313D1D7
S31560001A80C4F200022260022222719A6C042142F49E
S31560001A9000729A644FF46142CEF20002C2F880117D
S31560001AA09A6C22F4007212E0C4F2010222600322F0
S31560001AB022719A6C082142F480629A644FF4614202
S31560001AC0CEF20002C2F880119A6C22F480629A64A7
S31560001AD02268136823F00043136038BDF8B51E46CC
S31560001AE042F28063C2F200039842044615469DF8AE
S31560001AF0187006D042F2FC53C2F20003984200D03E
S31560001B0000BE072900D900BE202F00D900BE012ED5
S31560001B1002D9B6F5007F00D900BEF30700D500BE36
S31560001B2094F90400FFF7E0FD2268002384F8803012
S31560001B301368072923F0010313602268136843F0D2
S31560001B40020313602268136843F00103136015D81B
S31560001B5035F0407301F106020CBF45F0505545F073
S31560001B604055730804EBC10104EBC20245F481756C
S31560001B70013B556081F8387081F8393094F904007A
S31560001B80BDE8F840FFF7A3BD684620F007018D4623
S31560001B9001B542F28060C2F20000FFF780FEBDE848
S31560001BA0014085467047684620F007018D4601B5BD
S31560001BB042F2FC50C2F20000FFF771FEBDE8014040
S31560001BC085467047E02807B52CD141F288334FF43B
S31560001BD00041C4F203010093D1F89820009B12F4EF
S31560001BE0805F03F1FF334FF400420093C4F20302B7
S31560001BF002D1009B002BEFD1D2F8983023F46F63AB
S31560001C0023F00C03C2F8983042F2F843C2F20003A4
S31560001C101A68002A4AD042F2FD43C2F20003E0206D
S31560001C20597842E0E1282AD141F288334FF40041E5
S31560001C30C4F203010193D1F89820019B12F4805FEE
S31560001C4003F1FF334FF400420193C4F2030202D062
S31560001C50019B002BEFD142F20453C2F200031B68D2
S31560001C60C2F8983042F2F843C2F200031A68EAB149
S31560001C7042F2FD43C2F20003E120597815E0F128F3
S31560001C8008D080F08003202B04D900F14F03DBB22B
S31560001C90062B0BD842F2F843C2F200031A682AB147
S31560001CA042F2FD43C2F200035978904703B05DF8F3
S31560001CB004FB42F2FC43C2F2000300221A7042F2B5
S31560001CC00053C2F200031980704742F2FC42C2F22E
S31560001CD0000242F2FC431178C2F2000301F0FF00F9
S31560001CE00029F6D101221A7042F20053C2F20003B3
S31560001CF01880704742F2FC43C2F200031A78002A49
S31560001D00FCD142F20053C2F20003188880B27047D9
S31560001D108854030A0A445370030C000E9370D07003
S31560001D207047F7B51E4605460F461446FFF7CDFFCA
S31560001D3041F6B343C0F20003224600933946334668
S31560001D402846FFF793FAFFF7D5FF864204D123783A
S31560001D50AB4201D1607800E0C82003B0F0BD42F22A
S31560001D60F843C2F20003186042F20053C2F2000365
S31560001D7000221A8042F2FC43C2F200031A704FF44A
S31560001D800043C4F20303D3F8982042F2045342F2AC
S31560001D90FD4141F6C530C2F20003C2F20001C0F255
S31560001DA000001A60FFF703BAF0B58E46044693B09A
S31560001DB01F4603AE00F1200335462068616808348B
S31560001DC003C59C422E46F7D1130A8DF82C208DF858
S31560001DD02D30130C120E70468DF82F2003A9242285
S31560001DE08DF82E30FFF794FF03A938462822FFF7B7
S31560001DF08FFF062301AA03A90C20FFF792FF13B0F9
S31560001E00F0BD00F07043400103EB810120F07E409D
S31560001E1001F1007120F01F000858C0B2704710B57C
S31560001E2004460068037A03F00F030C2B4BD8DFE8F7
S31560001E3003F0074A090F0B4A0D4A4A4A4A4A0B0001
S31560001E40A36A3BE0636A39E0236A37E0E36935E019
S31560001E5000212830FFF7D5FF28B1E36A0BB900BE31
S31560001E6001E020469847206801212830FFF7C9FF26
S31560001E7028B1236B0BB900BE01E020469847206865
S31560001E8002212830FFF7BDFF28B1636B0BB900BE96
S31560001E9001E020469847206803212830FFF7B1FF0C
S31560001EA028B1A36B0BB900BE01E0204698472068B5
S31560001EB004212830FFF7A5FF30B1E36B1BB1204644
S31560001EC0BDE81040184700BE10BD684620F0070107
S31560001ED08D4601B542F24470C2F20000FFF79FFFE3
S31560001EE0BDE8014085467047684620F007018D468B
S31560001EF001B542F20470C2F20000FFF790FFBDE840
S31560001F000140854670470120704780687047012010
S31560001F1070470020704700207047012070470120FD
S31560001F2070477047836858687047836898687047D9
S31560001F3000207047002070470120704746F29A20C3
S31560001F404FF40043C4F20303C0F2000010B59A6C6C
S31560001F50012442F480129A649A6C42F0F0729A6498
S31560001F6000221356013203F01F015B099B0003F147
S31560001F70604304FA01F103F56143202AC3F8801037
S31560001F80C3F88011EDD14FF40043C4F203039A6C99
S31560001F9022F0F0729A649A6C22F480129A6410BDF0
S31560001FA008B5FFF7CBFF012008BD08B500F0E1FDDD
S31560001FB008BD704708B500F0DDFD13B542F28064D8
S31560001FC0C2F200042046FFF72FFD0022082300938B
S31560001FD020464FF480731146FFF780FD012002B062
S31560001FE010BD42F20853C2F20003D3E9000100308B
S31560001FF041F10101C3E9000101224FF040231A615A
S31560002000BFF34F8F704701224FF040239A62BFF3B0
S315600020104F8F70472DE9F0414FF4614600F011FE95
S31560002020CEF200064FF40043C4F203034FF4804837
S31560002030C6F880809A6C002522F040022C469A648D
S3156000204041F2D842C4F20824C2F200024FF04023A3
S3156000205001275D654FF0FF31C4F88051C4F888519F
S31560002060C4F884511F61C6F880811268596041F6D0
S31560002070E371DA61C0F200012A460E2000F07AFCB4
S31560002080A8B142F207012A46C0F200010F2000F013
S3156000209071FC60B14FF40043C4F88071C4F8807479
S315600020A0C4F88871C6F80080C4F88874336001206B
S315600020B0BDE8F0814FF040231A6842F20853C2F23D
S315600020C00003D243D3E9000100201043C3E90001B5
S315600020D0704738B500201D461446FFF7EBFF201AFF
S315600020E065EB0101002908BF292823BF4FF0402373
S315600020F0D8610120002038BD0020704748F2A063F7
S31560002100C0F2010300215843704738B544F24023BA
S31560002110C0F20F03A0FB034503FB01554FF4614278
S31560002120C0F2F55200232046294603F0F1FE38BD81
S3156000213044F24023C0F20F0358434FF46143C0F2A8
S31560002140F553B0FBF3F07047642358437047F0B51E
S3156000215000224FF0FF31930003F16043013203F533
S315600021606143082AC3F88010C3F88011F3D141F2A5
S31560002170100342F66514C2F200034FF46D4519462A
S31560002180CEF20005C0F200041E6800200C2753281A
S3156000219016D0EB6807FB00F2DB438A58C3F30223D1
S315600021A0C3F1040302FA03F31B0100F16042DBB2E0
S315600021B002F5614282F8003301304C608E60E6E7DA
S315600021C0F0BD2DE9F341044617461E4600F0BEFBFE
S315600021D00546C8B10021684600F0F7FC63099B001C
S315600021E04FF0010804F01F0203F1604308FA02F29F
S315600021F003F56143C3F8802068466F60AE601A607D
S3156000220000F0F3FC4046FFE702B0BDE8F08180B421
S3156000221093B000AF78607B681B687B647B685B68A3
S315600022203B647B689B68FB637B68DB68BB637B683E
S315600022301B697B637B685B693B637B689B69FB624D
S315600022407B68DB69BB624EF62853CEF200031B68DF
S315600022507B627B6A1B0C3B624EF62C53CEF200030C
S315600022601B68FB614EF63053CEF200031B68BB6100
S315600022704EF63C53CEF200031B687B614EF6345338
S31560002280CEF200031B68FB604EF63853CEF20003B5
S315600022901B683B61FEE7684620F007018D4601B585
S315600022A01EF0040F0CBFEFF30880EFF30980FFF711
S315600022B0AEBFBDE8014085467047684620F007011D
S315600022C08D4601B582B00021684600F07EFC41F281
S315600022D0F830C2F20000FEF721FA684600F085FC8D
S315600022E002B0BDE8014085467047684620F00701A8
S315600022F08D4601B582B00021684600F066FC41F269
S31560002300EC30C2F20000FEF709FA684600F06DFC98
S3156000231002B0BDE8014085467047684620F0070177
S315600023208D4601B5BDE8014085467047684620F098
S3156000233007018D4601B5BDE8014085467047684690
S3156000234020F007018D4601B584B00021684600F093
S315600023503CFC002102A800F038FC684600F01AFC3C
S3156000236041F22000C2F20000FEF7D8F9684600F09C
S3156000237031FC02A800F039FC684600F036FC04B077
S31560002380BDE8014085467047684620F007018D46E6
S3156000239001B584B00021684600F017FC002102A850
S315600023A000F013FC41F2BC00C2F20000FEF7B6F981
S315600023B002A800F01AFC684600F017FC04B0BDE8FD
S315600023C0014085467047684620F007018D4601B595
S315600023D084B00021684600F0F8FB002102A800F0F6
S315600023E0F4FB41F2C800C2F20000FEF797F902A8BA
S315600023F000F0FBFB684600F0F8FB04B0BDE8014066
S3156000240085467047684620F007018D4601B582B063
S315600024100021684600F0D9FB41F20410C2F20000C8
S31560002420FEF77CF9684600F0E0FB02B0BDE80140CB
S3156000243085467047684620F007018D4601B584B031
S315600024400021684600F0C1FB002102A800F0BDFB38
S31560002450684600F09FFB41F2B000C2F20000FEF752
S315600024605DF9684600F0B6FB684600F093FB02A88B
S3156000247000F0BBFB684600F0B8FB04B0BDE8014065
S3156000248085467047684620F007018D4601B5BDE870
S31560002490014085467047684620F007018D4601B5C4
S315600024A0BDE8014085467047684620F007018D46C5
S315600024B001B5BDE8014085467047684620F00701D2
S315600024C08D4601B5BDE8014085467047684620F0F7
S315600024D007018D4601B5BDE80140854670476846EF
S315600024E020F007018D4601B5BDE80140854670477D
S315600024F0684620F007018D4601B5BDE80140854676
S315600025007047684620F007018D4601B5BDE8014079
S3156000251085467047684620F007018D4601B5BDE8DF
S31560002520014085467047684620F007018D4601B533
S31560002530BDE8014085467047684620F007018D4634
S3156000254001B5BDE8014085467047684620F0070141
S315600025508D4601B5BDE8014085467047684620F066
S3156000256007018D4601B5BDE801408546704768465E
S3156000257020F007018D4601B5BDE8014085467047EC
S31560002580684620F007018D4601B5BDE801408546E5
S315600025907047684620F007018D4601B5BDE80140E9
S315600025A085467047684620F007018D4601B5BDE84F
S315600025B0014085467047684620F007018D4601B5A3
S315600025C0BDE8014085467047684620F007018D46A4
S315600025D001B5BDE8014085467047684620F00701B1
S315600025E08D4601B5BDE8014085467047684620F0D6
S315600025F007018D4601B5BDE80140854670476846CE
S3156000260020F007018D4601B5BDE80140854670475B
S31560002610684620F007018D4601B5BDE80140854654
S315600026207047684620F007018D4601B5BDE8014058
S3156000263085467047684620F007018D4601B5BDE8BE
S31560002640014085467047684620F007018D4601B512
S31560002650BDE8014085467047684620F007018D4613
S3156000266001B5BDE8014085467047684620F0070120
S315600026708D4601B5BDE8014085467047684620F045
S3156000268007018D4601B5BDE801408546704768463D
S3156000269020F007018D4601B5BDE8014085467047CB
S315600026A0684620F007018D4601B5BDE801408546C4
S315600026B07047684620F007018D4601B5BDE80140C8
S315600026C085467047684620F007018D4601B5BDE82E
S315600026D0014085467047684620F007018D4601B582
S315600026E0BDE8014085467047684620F007018D4683
S315600026F001B5BDE8014085467047684620F0070190
S315600027008D4601B5BDE8014085467047684620F0B4
S3156000271007018D4601B5BDE80140854670476846AC
S3156000272020F007018D4601B5BDE80140854670473A
S31560002730684620F007018D4601B5BDE80140854633
S315600027407047684620F007018D4601B5BDE8014037
S3156000275085467047684620F007018D4601B5BDE89D
S31560002760014085467047684620F007018D4601B5F1
S31560002770BDE8014085467047684620F007018D46F2
S3156000278001B5BDE8014085467047684620F00701FF
S315600027908D4601B5BDE8014085467047684620F024
S315600027A007018D4601B5BDE801408546704768461C
S315600027B020F007018D4601B5BDE8014085467047AA
S315600027C0684620F007018D4601B5BDE801408546A3
S315600027D07047684620F007018D4601B5BDE80140A7
S315600027E085467047684620F007018D4601B5BDE80D
S315600027F0014085467047684620F007018D4601B561
S31560002800BDE8014085467047684620F007018D4661
S3156000281001B5BDE8014085467047684620F007016E
S315600028208D4601B5BDE8014085467047684620F093
S3156000283007018D4601B5BDE801408546704768468B
S3156000284020F007018D4601B5BDE801408546704719
S31560002850684620F007018D4601B5BDE80140854612
S315600028607047684620F007018D4601B5BDE8014016
S3156000287085467047684620F007018D4601B5BDE87C
S31560002880014085467047684620F007018D4601B5D0
S31560002890BDE8014085467047684620F007018D46D1
S315600028A001B5BDE8014085467047684620F00701DE
S315600028B08D4601B5BDE8014085467047684620F003
S315600028C007018D4601B5BDE80140854670476846FB
S315600028D020F007018D4601B5BDE801408546704789
S315600028E0684620F007018D4601B5BDE80140854682
S315600028F07047684620F007018D4601B5BDE8014086
S3156000290085467047684620F007018D4601B5BDE8EB
S31560002910014085467047684620F007018D4601B53F
S31560002920BDE8014085467047684620F007018D4640
S3156000293001B5BDE8014085467047684620F007014D
S315600029408D4601B5BDE801408546704752289FBF58
S3156000295041F21003C2F200030C2202FB003088BF72
S315600029600020704746F2BA20C0F20000FDF74FBD66
S31560002970FFF7EDBB13460A460021FFF722BC42F281
S315600029801053C2F2000318600023036043604BF6E5
S31560002990EF63CDF6AD63C3604FF20D03CBF6B123A3
S315600029A081600361704770B50446002847D04FF2D6
S315600029B00D03CBF6B12350F8041CA0F1140699421E
S315600029C01D4607D050F80C2C46F2FD20C0F20000E0
S315600029D0FDF71DFD54F80C2CB31853F8041CA942DE
S315600029E005D046F23B30C0F20000FDF710FD4BF615
S315600029F0EF63CDF6AD6354F8141C44F8083C1A46F0
S31560002A0069B1CB6893420AD18B6854F80C0C0344C5
S31560002A1044F80C3C0B6844F8143C03B15E6054F80F
S31560002A20103C63B1D968914209D154F80C2C99686D
S31560002A300A449A6054F8142C1A6002B1536070BD4F
S31560002A4042F210534BF6EF62C2F20003CDF6AD626E
S31560002A5010B51B301C6820F0030154B3E368934241
S31560002A6014D1A368994211D801F1280293420FD973
S31560002A7020685B1AE218E0505460226000B1426040
S31560002A809160A068411AA160144601E02468E4E7F9
S31560002A904BF65E634FF20D02CDF6AD63CBF6B12217
S31560002AA0E360A3682261234443F8042C04F1140014
S31560002AB010BD46F27930C0F20000FDF7A8FC204652
S31560002AC010BD13B50C466846002100F07EF820461E
S31560002AD0FFF7B6FF0446684600F087F8204602B066
S31560002AE010BD73B516460C4605467443002168460C
S31560002AF000F06BF821462846FFF7E3FF05462246BD
S31560002B00002100F001FC684600F06FF8284602B02C
S31560002B1070BD13B50C466846002100F056F8204695
S31560002B20FFF741FF684600F060F802B010BD73B56C
S31560002B300E46044600216846154600F046F82EB952
S31560002B4020462946FFF7BDFF044600E0002468469C
S31560002B5000F04BF8204602B070BD4FF600634FF6AA
S31560002B60FC72C2F20003C2F200020360D31A0B6069
S31560002B707047704772B64FF46D42CEF2000204237E
S31560002B80C0F2FA53D16801F4E0610B43D360BFF33E
S31560002B904F8FFEE70368DB0703D4EFF31083036010
S31560002BA062B670470368DB0703D4EFF3108362B63F
S31560002BB000BF704772B60120704762B60120704749
S31560002BC0EFF31083036072B6704708B54160FFF794
S31560002BD0F7FF08BD0368DB0701D5FFF7F1BF704754
S31560002BE00368DB0700D462B6704708B5FFF7F8FFE5
S31560002BF008BD41F2E043C2F20003186041F2D843D7
S31560002C00C2F20003186041F2DC43C2F2000347F6E9
S31560002C104002186041F2CC43C0F27D12C2F200035A
S31560002C201A6041F2D043C2F20003186041F2D44305
S31560002C30C2F20003186041F2C843C2F20003186092
S31560002C4070474FF40043C4F20303D3F8982082B070
S31560002C5051014BD4D3F89820D2042CD441F2E042EF
S31560002C604FF46143C0F2F553C2F20002136041F2C1
S31560002C70D842C2F20002136041F2DC42C2F20002A4
S31560002C8047F64001136041F2CC42C0F27D11C2F2B8
S31560002C900002116041F2D042C2F20002136041F2BA
S31560002CA0D442C2F20002136041F2C842C2F200028C
S31560002CB0136002B0704746F29831C0F200016A466E
S31560002CC00868496803C2D3F89C2002A9C2F382123D
S31560002CD00A4412F8082C012A05D007D344F2402092
S31560002CE0C0F20F0010E04FF400400DE0D3F8503111
S31560002CF047F6400013F0040F4FF28003C0F2FA2348
S31560002D00C0F27D1018BF184602B0FFF772BF10B54B
S31560002D10044603694069984700236361236123760B
S31560002D2010BD70B5048800232825A34209DA05FB87
S31560002D300306367A8E4202D11370012070BD0133CC
S31560002D40F3E7002070BD38B50023C18003712824E5
S31560002D50FA2105885A1C9BB29D4204D904FB0303E1
S31560002D6019721346F5E743F269030022C0F20003C5
S31560002D701146C088FFF74EF9003018BF012038BDF4
S31560002D802DE9F74314461E4602AA002302F8013DC8
S31560002D9007468846FFF7C5FF40B93A880F2A01D92A
S31560002DA0002038E08DF8072001323A809DF8072030
S31560002DB0282505FB0272D2F81C90B9F1000FEFD1FD
S31560002DC0F9883046FFF7C0F9F98806462046FFF7CE
S31560002DD0BBF99DF807300C9A5D4305F10803FD18B1
S31560002DE02A620A9A0446EA600B9AAE60003218BFFD
S31560002DF001226A61C5F81090686007F80380FEF7E3
S31560002E00BDF8A2194FF0000343F100038018594141
S31560002E10C5E90601012003B0BDE8F08373B5164627
S31560002E201D4602AA002302F8013D0446FFF779FF1A
S31560002E3090B1E1882846FFF787F9E1880546304674
S31560002E40FFF782F99DF80730282202FB0343069AB2
S31560002E50D8601D615A61012002B070BD37B500248B
S31560002E6002AA02F8014D0546FFF75BFF38B19DF8EF
S31560002E700730282000FB03508461C461012003B041
S31560002E8030BD2DE9F043037943BB01469E464FF6BC
S31560002E90FF751A46B0F800904FF0FF341FFA83F8BA
S31560002EA0C84511D2D1F818C0BCF1010F09D1D1E9DA
S31560002EB00867BD4208BFB44221BF34463D4642461C
S31560002EC0E64601332831E9E7BEF1000F08D0282332
S31560002ED003FB0203186A596ABDE8F083BDE8F08314
S31560002EE04FF0FF304FF6FF71BDE8F0832DE9F843F0
S31560002EF00379044673BB9E464FF6FF711D46B0F8D4
S31560002F00009002464FF0FF301FFA83F8C14511D991
S31560002F10D2F818C0BCF1010F09D1D2E90867B942ED
S31560002F2008BFB04221BF304639464546E6460133C2
S31560002F302832E9E7BEF1000F0AD0282303FB0543D8
S31560002F40E088D3E90823FFF7C4F86580BDE8F88315
S31560002F5010236380BDE8F8832DE9FF41002704AAAA
S31560002F6002F8097D06460C46FFF7DBFE58B39DF86E
S31560002F7007304FF0280808FB03639869012822D0C0
S31560002F802046FDF785FB9DF80730002508FB0363A7
S31560002F901A69DC68A41845F1000500196941C3E99E
S31560002FA00801394602A8FFF710FE9DF80730012494
S31560002FB008FB03683046C8F81840FFF797FF02A879
S31560002FC0FFF713FE204604B0BDE8F081FF23012819
S31560002FD00B7004BF00230B707047F7B5037E054680
S31560002FE00E4617461BB903690BB1002419E0002190
S31560002FF06846FFF7EAFD2B7E8BB901242C7668467E
S31560003000FFF7F3FD002CF0D042F60F512E616F6191
S315600030102A46C0F200012846FDF744FC01E0002480
S31560003020EDE7204603B0F0BD2DE9F04142F21456BB
S315600030308046C2F20006002437193846FDF704FCC4
S31560003040024650B9D8F820103846FFF7C6FF054645
S3156000305018B13846FDF707FC03E01C34E02CEBD1D1
S3156000306000252846BDE8F0812DE9F74F4FF0402353
S3156000307001259D62BFF34F8F42F2B014C2F2000485
S31560003080D0F800B002A9002601F8016D5846FFF796
S315600030909DFF9DF807204FF422735343E218157184
S315600030A0528827460F2A38D8282101FB023303F1BC
S315600030B0080A0AEB04052A69AAB123441FFA8BF0B1
S315600030C0D3E90889FEF7F6FF894508BF80450AD22D
S315600030D01AF80430052B11D82B6A30469847EB68EE
S315600030E083B100232B619DF807304FF4227000FBFB
S315600030F0037000230371FFF7F9FE0EE02846FFF721
S3156000310093FFECE714F80A00FDF7C2FAAB68C01843
S3156000311041F10001C5E90601E5E703B0BDE8F08FBE
S3156000312042F2F453C2F200031A6801321A60704721
S31560003130FDF7C8BB30B5012085B0FEF7DDFF43F271
S315600031402113C0F2000301228DE80C0000230292D5
S31560003150194602460A20FDF70BFA012826D10A20F5
S31560003160FDF72EFA0128054620D143F23114FEF709
S31560003170C3FFC0F200040023029500950246019445
S3156000318019460620FDF7F4F9012805460ED1FEF72B
S31560003190B3FF00230246194618460295019400952E
S315600031A0FDF7E6F9431E5842584100E0002005B09D
S315600031B030BD08B50020FDF71EFA012801D00020B9
S315600031C008BD0A20FDF717FA0128F8D10620FDF799
S315600031D012FA431E5842584108BD0A20FDF758BAF4
S315600031E00020FDF708BA002199424FF0FF3008BF72
S315600031F0904238BF024630B5012185B01046FEF7D1
S3156000320097FF012400220146054600942346104696
S31560003210FDF70CFAA0420CD043F23113C0F2000362
S315600032200022019302940094234629461046FDF736
S315600032309FF9002005B0BDE83040FDF7C1B930B553
S31560003240012485B000942346002206200D46FDF732
S31560003250EDF9A0420CD043F23113C0F200030294A0
S31560003260019300942346002229460620FDF780F943
S31560003270062005B0BDE83040FDF7A2B90A20FDF78B
S31560003280F7B9000010B5144672B10949104600F04E
S3156000329043F848B10749204600F03EF820B1064998
S315600032A0204600F039F808B9024810BD002010BD6C
S315600032B0A2630000A06300009763000000487047A7
S315600032C0E4140020024B0A4601461868FFF7DABF8D
S315600032D04819002010B501390244904207D010F811
S315600032E0013B11F8014FA342F7D0181B10BD002017
S315600032F010BD10B5431E0A44914204D011F8014B2B
S3156000330003F8014FF8E710BD03460244934202D02A
S3156000331003F8011BFAE7704710F8012B11F8013B1F
S31560003320012A28BF9A42F7D0D01A704730B5141ECA
S3156000333005469BB0184604DA8B232B604FF0FF30AE
S315600033401DE04FF40273ADF80C300CBF234604F158
S31560003350FF33029305934FF6FF7300910491ADF826
S315600033600E3002461E9B6946284600F019F8431C3B
S31560003370BCBF8B232B6014B1009B00221A701BB05C
S3156000338030BD000007B5009313460A460146034860
S315600033900068FFF7CBFF03B05DF804FB4819002017
S315600033A02DE9F04FBDB08B4609921F468146FFF767
S315600033B085FF03681846119302F078F8BBF80C3065
S315600033C00A90190615D5DBF8103093B940214846A6
S315600033D0FFF777FBCBF80000CBF8100030B90C2371
S315600033E0C9F800304FF0FF3000F08BBF4023CBF8B8
S315600033F0143000232CAC1F942193209308930C93D4
S315600034000D93139312930E93099D2B4613F8012B7C
S315600034101AB1252A01D01D46F7E7099BEE1A17D087
S3156000342084E84800219B33442193209B0133072B7A
S31560003430209301DC083408E01FAA5946484602F08A
S315600034403DF8002840F022862CAC0E9B33440E9348
S315600034502B78002B00F0138600226B1C1146154654
S315600034608DF85F204FF0FF3A0B920A205E1C1B78A6
S3156000347009960693069B203B582B00F25982DFE89B
S3156000348013F05C00570257026B005702570257024F
S315600034905702570257026E005900570278007B00A8
S315600034A057029F00A200A200A200A200A200A200F2
S315600034B0A200A200A2005702570257025702570203
S315600034C057025702570257025702D200FE005702B0
S315600034D0FE005702570257025702B50057025702BD
S315600034E04301570257025702570257028A01570291
S315600034F05702660057025702570257025702570291
S315600035005702570257025702C9006100FE00FE00CB
S31560003510FE00B800610057025702BB005702250142
S3156000352045016001C6005702710157028C015702BE
S315600035305702A40101222B2102E009B901222021B0
S31560003540099B93E7002A73D08DF85F1070E00AB18B
S315600035508DF85F10A94B3CE145F00105F0E73E6848
S315600035603B1D002E0B9601DB1F46E9E71F467642A0
S315600035700B9645F00405E3E7099B5E1C1B782A2B36
S31560003580069301D000230AE0D7F800A03B1DBAF1EC
S31560003590000F1F460996D3DA4FF0FF3AD0E7099637
S315600035A0069E303E092E08D800FB0363099EB64688
S315600035B01EF8016B06967646F1E743EAE37A59E729
S315600035C045F08005BCE700230B93069B0B9E303BC2
S315600035D000FB06330B93099B1E4616F8013B0693C8
S315600035E0069B0996303B092BEFD943E745F0080562
S315600035F0A6E745F04005A3E7099B1B786C2B03D132
S31560003600099B0133099302E045F0100598E745F000
S31560003610200595E73B1D07933B6800268DF88830AB
S315600036208DF85F6093E10AB18DF85F1045F0100583
S31560003630AA0608D5073727F0070707F10803079397
S31560003640D7E900670EE015F0100F07F1040302D00A
S3156000365007933E6805E03E6815F0400F079318BF74
S3156000366036B2F717002E77F1000380F2E2807642D9
S315600036704FF02D0367EB47078DF85F30D9E00AB14D
S315600036808DF85F10073727F0070707F108030793E0
S315600036903B684FF0FF320C937B680C9F0D930D9B3C
S315600036A0384623F000463146554B02F0F3FB0028BE
S315600036B040F0F6844FF0FF32514B3846314602F007
S315600036C0CBFB002840F0EC8400F004BE0AB18DF814
S315600036D05F1015F0200F07F1040307D00E993A68C2
S315600036E0CE1708463146C2E900010BE0E90606D46A
S315600036F06A0604D53A68BDF83810118002E03A6867
S315600037000E9911601F467FE645F0100515F02003FF
S3156000371009D0073727F0070707F108030793D7E9AA
S315600037200067002381E03A1D15F01001079205D16C
S3156000373015F0400302D03E880027F2E73E68002776
S3156000374073E03B1D079330238DF860302D4B782254
S315600037503E681393002745F002058DF86120022329
S31560003760069262E000263B1DB2450793D7F80080BB
S315600037708DF85F600ADB52463146404601F0DEFB5B
S31560003780002800F0EA80C8EB000AE7E0404601F056
S315600037908DFE8246E2E045F01005AE0608D5073795
S315600037A027F0070707F108030793D7E900670AE0E0
S315600037B03B1D15F0100F079303D1680601D53E88AF
S315600037C000E03E68002701232FE00AB18DF85F1004
S315600037D00C4BA906139308D5073727F0070707F19F
S315600037E008030793D7E9006710E03B1D15F0100F3B
S315600037F0079309D16A0607D53E8806E0CA630000CA
S31560003800FFFFEF7FDB6300003E680027EB070BD509
S3156000381056EA070308D030238DF860309DF81830DB
S3156000382045F002058DF86130022300228DF85F2095
S3156000383000E00123BAF1000FC0F25D8556EA070287
S3156000384025F0800103D1BAF1000F5FD006E00D4686
S31560003850012B25D0022B46D0294607E00D46012BC9
S3156000386022D0022B3DD02946002600270DF1B00854
S31560003870F20842EA4772F80806F00703074616465A
S31560003880303356EA070208F8013DF1D1E80748D51A
S31560003890302B46D0302308F8013C08F1FF3840E071
S315600038A0002F08BF0A2E05D230360DF1F00808F851
S315600038B0416D29E00DF1B008304639460A220023F1
S315600038C002F026FB303208F8012D002330463946D7
S315600038D00A2202F01DFB06460F4656EA0703EBD1A5
S315600038E012E0002600270DF1B008139A06F00F03C8
S315600038F0D35C3A0908F8013D330943EA07731E466B
S31560003900174656EA0703F0D129460AE03BB9EA07AB
S3156000391005D50DF1F008302308F8413D01E00DF1C1
S31560003920B0082CAB56460D46C8EB030A002716E0D6
S315600039300AB18DF85F10069B002B00F0A0839DF8FE
S31560003940183000268DF888308DF85F6007974FF045
S31560003950010A37460DF1880801E0064637465645A6
S315600039603346B8BF53460F939DF85F3013B10F9B34
S3156000397001330F9315F0020314931EBF0F9B02339E
S315600039800F9315F08403159339D10B9B0F9A9B1AED
S31560003990002B109333DD109B102BA34B236018DD97
S315600039A010236360219B10332193209B0133072BE7
S315600039B0209301DC083408E01FAA5946484601F006
S315600039C07DFD002840F062832CAC109B103B109369
S315600039D0E1E7109B109A6360219B13442193209B1F
S315600039E00133072B209301DC083408E01FAA5946EF
S315600039F0484601F063FD002840F048832CAC9DF8F2
S31560003A005F30BBB10DF15F03236001236360219BCF
S31560003A1001332193209B0133072B209301DC08346B
S31560003A2008E01FAA5946484601F048FD002840F0C4
S31560003A302D832CAC149BB3B118AB23600223636057
S31560003A40219B02332193209B0133072B209301DCBA
S31560003A50083408E01FAA5946484601F02FFD0028A1
S31560003A6040F014832CAC159B802B39D10B9B0F9A9D
S31560003A709B1A002B109333DD109B102B6B4B23602E
S31560003A8018DD10236360219B10332193209B013343
S31560003A90072B209301DC083408E01FAA59464846E4
S31560003AA001F00CFD002840F0F1822CAC109B103B1D
S31560003AB01093E1E7109B109A6360219B1344219356
S31560003AC0209B0133072B209301DC083408E01FAAF2
S31560003AD05946484601F0F2FC002840F0D7822CACEB
S31560003AE0CAEB0606002E2EDD504B102E236016DD27
S31560003AF010236360219B10332193209B0133072B96
S31560003B00209301DC083408E01FAA5946484601F0B4
S31560003B10D5FC002840F0BA822CAC103EE4E7209B2E
S31560003B20219801336660072B06442196209301DCB9
S31560003B30083408E01FAA5946484601F0BFFC002831
S31560003B4040F0A4822CACEB0514D4219B84E80005DC
S31560003B5053442193209B0133072B209340F34582E6
S31560003B601FAA5946484601F0A9FC002840F08E82FB
S31560003B702CAC3BE2069B652B40F3AE810022002312
S31560003B800C980D9902F054F900285ED0284B2360FA
S31560003B9001236360219B01332193209B0133072B13
S31560003BA0209301DC083408E01FAA5946484601F014
S31560003BB085FC002840F06A822CAC199B089A9342D7
S31560003BC002DBEE0740F11282119B0A9A23600A9B80
S31560003BD06360219B13442193209B0133072B209321
S31560003BE001DC083408E01FAA5946484601F066FC25
S31560003BF0002840F04B822CAC089B5E1E002E40F3E2
S31560003C00F5810A4F4FF01008102E40F35981219B21
S31560003C1084E8800110332193209B0133072B209386
S31560003C2008DC08340FE000BFAA630000EE63000002
S31560003C30EC6300001FAA5946484601F03FFC002885
S31560003C4040F024822CAC103EDEE7199B002B7CDC16
S31560003C509F4B236001236360219B01332193209B4B
S31560003C600133072B209301DC083408E01FAA59466C
S31560003C70484601F023FC002840F008822CAC199BD2
S31560003C8023B9089B13B9E80740F1B081119B0A9AE2
S31560003C9023600A9B6360219B13442193209B01331D
S31560003CA0072B209302DC04F1080308E01FAA59469B
S31560003CB0484601F003FC002840F0E8812CAB199ED1
S31560003CC07642002E30DD834F1024102E16DD219AA9
S31560003CD01F6010322192209A5C600132072A20927E
S31560003CE001DC083308E01FAA5946484601F0E6FBA6
S31560003CF0002840F0CB812CAB103EE6E7754A83E89E
S31560003D004400219A1644209A21960132072A20926D
S31560003D1001DC083308E01FAA5946484601F0CEFB8D
S31560003D20002840F0B3812CAB089A08995A60219A12
S31560003D30C3F800800A442192209A0132072A209211
S31560003D403FF70EAF03F1080450E1089BBB42A8BFE2
S31560003D503B46002B1E4615DD6360219BC4F8008040
S31560003D6033442193209B0133072B209301DC0834D5
S31560003D7008E01FAA5946484601F0A0FB002840F01B
S31560003D8085812CAC002EB4BF3E46BE1B002E30DDB6
S31560003D904FF0100A4F4B102E236016DD219BC4F89E
S31560003DA004A010332193209B0133072B209301DC61
S31560003DB0083408E01FAA5946484601F07FFB0028F0
S31560003DC040F064812CAC103EE4E7219B66601E44A3
S31560003DD0209B21960133072B209301DC083408E0F1
S31560003DE01FAA5946484601F069FB002840F04E81FB
S31560003DF02CAC199B089A4744934201DBE90717D517
S31560003E00119B0A9A23600A9B6360219B134421934A
S31560003E10209B0133072B209301DC083408E01FAA9E
S31560003E205946484601F04AFB002840F02F812CACE9
S31560003E30089B089A08EB0306199BF61BD31A9E4249
S31560003E40A8BF1E46002E14DD219B276033442193B4
S31560003E50209B66600133072B209301DC083408E061
S31560003E601FAA5946484601F029FB002840F00E81FA
S31560003E702CAC199B089A002EA2EB0303B4BF1E4616
S31560003E809E1B002E40F3B280124F4FF01008102E8A
S31560003E9016DD219B84E8800110332193209B01333A
S31560003EA0072B209301DC083408E01FAA59464846D0
S31560003EB001F004FB002840F0E9802CAC103EE6E7F8
S31560003EC0044B84E84800219B1E44219642E600BFCD
S31560003ED0EC630000EE630000089B012B01DCEA073F
S31560003EE073D501236360219BC4F80080013321935D
S31560003EF0209B0133072B209301DC083408E01FAABE
S31560003F005946484601F0DAFA002840F0BF802CACEA
S31560003F10119B0A9A23600A9B6360219B1344219339
S31560003F20209B0133072B209301DC083408E01FAA8D
S31560003F305946484601F0C2FA002840F0A7802CACEA
S31560003F40002300220C980D9901F072FF089B5E1EFB
S31560003F50B8B908F1010384E84800219B089A013B3F
S31560003F6013442193209B0133072B209334DD1FAA32
S31560003F705946484601F0A2FA002840F087802CACEA
S31560003F802BE0002E29DD8F4F4FF01008102E15DD27
S31560003F90219B84E8800110332193209B0133072BFA
S31560003FA0209301DC083407E01FAA5946484601F011
S31560003FB085FA00286AD12CAC103EE7E7814B84E88D
S31560003FC04800219B1E442196CCE701236360219B18
S31560003FD0C4F800800133C4E708341BAB2360129B2E
S31560003FE0129A6360219B1344B3E508346B070BD4C4
S31560003FF00E9B0B9A0F998A42ACBF9B185B180E9367
S31560004000219B002B35D02EE00B9B0F9A9D1A002D1D
S31560004010EEDD10266C4B102D236013DD219B666050
S3156000402010332193209B0133072B209301DC083446
S3156000403006E01FAA5946484601F040FA30BB2CAC50
S31560004040103DE7E7219B65601D44209B2195013368
S31560004050072B2093CCDD1FAA5946484601F02EFA5D
S315600040600028C5D012E01FAA5946484601F026FA34
S3156000407060B900232093079F2CACFFF7C5B9219B3D
S3156000408023B11FAA5946484601F018FABBF80C300E
S3156000409013F0400F0E9B18BF4FF0FF33184630E108
S315600040A00C9A0D9B0C980D9901F0F4FE60B1474B8C
S315600040B0474A069925F080054729CCBF9046984621
S315600040C04FF0030A002649E4BAF1FF3F0AD0069B87
S315600040D023F02003472B07D1BAF1000F08BF4FF03A
S315600040E0010A01E04FF0060A45F4807315930D9BB3
S315600040F01F1E0C9BA8BF10970F93BDBF3B4603F1D5
S31560004100004310930023B8BF2D231493069B23F01E
S315600041102007462F04D0452F05D10AF1010603E09A
S315600041205646032301E0564602231DAA04921AAAA4
S31560004130039219AA02928DE848000F9A109B48468E
S3156000414000F072F9472F804602D1EB0740F1CF802D
S3156000415008EB0603462F089311D198F80030302BF0
S3156000416009D1002200230F98109901F061FE10B961
S31560004170C6F101061996089A199B1A4408920022FC
S3156000418000230F98109901F053FE08B9302202E01F
S31560004190089B1D9307E01D9B0899994203D9591CFA
S315600041A01D911A70F7E71D9B472FC8EB0303089311
S315600041B010D1199BDF1C01DB9A456ADA069B023B2C
S315600041C006930AE0EE630000AA630000C263000083
S315600041D0C6630000069B652B44DC199B9DF818207E
S315600041E0013B002B1993B8BF5B428DF86C20B4BFBE
S315600041F02D222B22092B8DF86D201DDD0DF17B0202
S315600042000A2093FBF0F100FB1133092903F1300317
S3156000421002F8013D0B46F4DC303302F8013C511ED6
S315600042200DF16E030DF17B0081421A460BD211F837
S31560004230012B03F8012BF7E7302213448DF86E202B
S315600042408DF86F301CAA1BABD31A089A1293012AF9
S3156000425003EB020A02DC15F0010732D00A9B002745
S315600042609A442EE0069B662B13D1199B002B07DD23
S31560004270BAF1000F01D1EE0721D50A9A134406E080
S31560004280BAF1000F01D1ED0714D50A9B01335344EF
S3156000429015E0199B089A934203DBE8070DD50A9A45
S315600042A006E0089A0A99002B0A4405DCC3F101036B
S315600042B0134402E0012302E01346672206929A46FF
S315600042C0199F149B13B12D238DF85F30159D002621
S315600042D0FFF745BB002200230C980D9901F0B2FD53
S315600042E010B12D238DF85F30074B084AE1E61D9B20
S315600042F01B1A08935DE756EA07027FF4A9AAFFF73F
S31560004300AEBA3DB0BDE8F08FBA630000BE63000090
S315600043102DE9F74F03690C6980469C427FDC013CBE
S3156000432001F114074FEA840E00F1140606EB0E0342
S3156000433057F82450019356F824300135B3FBF5F550
S3156000434007EB0E09C5B34FF0000A3846B446D346AC
S3156000435050F8043B9AB205FB02A21B0C4FEA124AC4
S3156000436005FB03A392B2C2EB0B0BBCF800204FEA2D
S31560004370134A5A441FFA83FBDCF800308145CBEBC5
S31560004380134303EB224392B242EA03424FEA234BC2
S315600043904CF8042BDCD256F80E306BB9019B043B0B
S315600043A09E421A4602D3C8F8104005E01268043BE4
S315600043B0002AF8D1013CF3E7404600F0AEFF002842
S315600043C02BDB304601354FF0000E57F8042B03689F
S315600043D091B2C1EB0E0E120C99B27144C2EB13434B
S315600043E003EB214389B24FEA234EB94541EA0343C1
S315600043F040F8043BE9D256F8242006EB840362B900
S31560004400043B9E421A4602D3C8F8104005E0126883
S31560004410043B002AF8D1013CF3E7284600E000207F
S3156000442003B0BDE8F08F00002DE9F04F016C95B048
S315600044308246219CCDE9022349B1426C0123934017
S315600044408B604A6000F0AEFD0023CAF84030039BE3
S31560004450A14A002BBDBF01232360039B0023BCBF81
S3156000446023F000430393DDF80C80A8BF236028F097
S3156000447000431B0D1B0593421DD142F20F73209A18
S315600044801360029B43B9954A954BC8F31300002805
S3156000449014BF1846104600E09148229B002B00F09E
S315600044A04785C37813B100F1080300E0C31C229A64
S315600044B0136000F03DBDDDE9024500220023204681
S315600044C0294601F0B5FC074658B1209A01231360CE
S315600044D0229B002B00F01F8582481860013800F08F
S315600044E027BD12AB019313AB009322462B46504671
S315600044F000F08EFFC8F30A56049056B1C5F3130355
S3156000450043F07F51204641F44011A6F2FF361197E1
S315600045101DE0139B129E1E4406F23243202B0ADDD9
S31560004520029A06F21240C3F1400322FA00F008FA3A
S3156000453003F3184304E0C3F12000029B03FA00F082
S3156000454001F098F90123A1F1F871013E119300225F
S31560004550654B01F051F85AA3D3E9002301F000FA44
S3156000456059A3D3E9002301F049F8044630460D46C5
S3156000457001F090F956A3D3E9002301F0F1F9024660
S315600045800B462046294601F039F804460D4601F0EF
S3156000459097FC0022834600232046294601F052FC00
S315600045A058B1584601F076F902460B462046294630
S315600045B001F03EFC08B90BF1FF3BBBF1160F0DD8BD
S315600045C0DDE90223494901EBCB01D1E9000101F0A4
S315600045D057FC30B10BF1FF3B002300E00123109341
S315600045E000E01090129B9E1B731E079343BFC3F19E
S315600045F00008002307934FF00008BBF1000F06DBAD
S31560004600079BCDF82CB05B440793002705E0002399
S31560004610CBEB0808CBF100070B931E9B092B28D820
S31560004620052BC4BF043B1E931E9BC8BF0024A3F189
S315600046300203D8BF0124032B20D8DFE803F0060E5F
S315600046400204012302E0012308E000230A931F9B72
S31560004650002B1DDD9946059321E000230A931F9BDD
S315600046600BEB030909F10103012B0593B8BF012385
S3156000467015E0012400231E930A9401E001230A93A6
S315600046804FF0FF390022CDF8149012231F9206E0F6
S315600046904FF001094B46CDF81490CDF87C9000227E
S315600046A0CAF84420042202F114019942DAF844104F
S315600046B01ED80131CAF844105200F4E7AFF3008007
S315600046C061436F63A787D23FB3C8608B288AC63FB2
S315600046D0FB799F501344D33F0000F07FFE630000D8
S315600046E007640000ED6300000000F83F18640000F6
S315600046F0504600F031FC059B06900E2BCAF8400030
S3156000470000F25C81002C00F05981DDE90234BBF1D6
S31560004710000FCDE90E3430DD9F4A0BF00F034FEAF0
S315600047202B1502EBC303E80618CBCDE908340CD58C
S31560004730DDE90E01994B05F00F05D3E9082301F079
S3156000474039FA0324CDE9020100E00224934E6DB1EB
S31560004750E90708D5DDE90801D6E9002301F000F98B
S31560004760CDE9080101346D100836F0E7DDE908236C
S31560004770DDE9020101F01EFA20E0CBF1000505B388
S31560004780DDE90E01844B05F00F0203EBC203D3E9AA
S31560004790002301F0E5F8CDE90201804E2D110023DA
S315600047A0022455B1EA0705D5D6E9002301F0D8F809
S315600047B0013401236D100836F3E71BB1CDE9020120
S315600047C000E00224109BE3B1DDE902560022744B3F
S315600047D02846314601F036FB98B1059B8BB1B9F19D
S315600047E0000F40F3E7800BF1FF3308933146002258
S315600047F06C4B284601F0B4F80134CDE902014E460F
S3156000480002E0059ECDF820B0204601F043F8DDE9D0
S31560004810022301F0A5F8644B002200F0EFFEA1F13F
S31560004820507304460C931D46D6B9DDE90201002299
S315600048305E4B00F0E1FE22460C9BCDE9020101F0E1
S315600048401FFB002840F040820C99224601F100438C
S31560004850DDE9020101F0F6FA002840F02C82A9E0B9
S315600048600A9A4D4B711E002A49D003EBC103D3E966
S31560004870002300204E4901F09DF922462B4600F0A8
S31560004880BBFECDE90C01069CDDE9020101F018FBD7
S31560004890054600F0FFFF02460B46DDE9020100F027
S315600048A0ABFEDDE90C23303504F8015BCDE902018E
S315600048B001F0C8FA002840F01E83DDE902230020DB
S315600048C0374900F099FEDDE90C2301F0BBFA0028B8
S315600048D040F0D280069BE31AB3426BDADDE90C0145
S315600048E00022304B01F03CF80022CDE90C01DDE9F5
S315600048F002012C4B01F034F8CDE90201C4E703EB69
S31560004900C1012246D1E900012B4601F029F8069B38
S31560004910CDE90C011D469C19DDE9020101F0D0FAD2
S31560004920064600F0B7FF02460B46DDE9020100F0DD
S3156000493063FE303605F8016BAC42CDE902014FF0FB
S31560004940000222D11A4BDDE90C0100F057FE024647
S315600049500B46DDE9020101F093FA002840F08C80F5
S31560004960DDE90C230020124900F046FE02460B46A4
S31560004970DDE9020101F066FAE0B114F8013C621E5D
S31560004980302B40F0B8821446F7E7064B00F0E8FF9C
S31560004990CDE90201C0E700BF18640000E0640000D2
S315600049A00000F03F0000244000001C40000014405E
S315600049B00000E03FDDE90E34CDE90234139B002BA5
S315600049C07CDBBBF10E0F79DCAB4B03EBCB03D3E99E
S315600049D000671F9B002B14DA059B002B11DC40F04F
S315600049E06C810022A54B3046394600F0B9FFDDE9FF
S315600049F0022301F03BFA059D2E46002840F05F81B8
S31560004A0065E1069CDDE9028932463B4640464946F9
S31560004A1001F0D0F801F054FA054600F03BFF32464B
S31560004A203B4600F09DFF0B4602464946404600F075
S31560004A30E3FD05F1300E069B04F801EBC3EB040EB3
S31560004A40059B73452DD102460B4600F0D7FD804687
S31560004A50894602460B463046394601F0F3F978B985
S31560004A6042464B463046394601F0E2F9002800F0EE
S31560004A704482EB0704D440E2DDF820B000E01C4637
S31560004A8014F8012C631E392A07D1069A9A42F6D188
S31560004A90069930220BF1010B0A701A7801321A70EE
S31560004AA02BE20022764B00F05BFF0022002380465B
S31560004AB0894601F0BDF90028A6D01EE20A9A002AAE
S31560004AC02BD01E9A012A0ADC119A12B103F23343E3
S31560004AD002E0129BC3F136033D46444613E0059B54
S31560004AE05D1EAF42BFBF0B9BEA1B9B180B93059BDA
S31560004AF0B6BF2F467D1B0025002BA7BF4446059BEE
S31560004B00C3EB08040023079A01211A4450469844CF
S31560004B10079200F0D8FA064602E03D4644460A9EF1
S31560004B205CB1079B002B08DDA342A8BF2346079A0A
S31560004B30C3EB0808E41AD31A0793002F1DDD0A9BFE
S31560004B40ABB18DB131462A46504600F055FB049A0A
S31560004B5001460646504600F0BFFA04990890504652
S31560004B6000F020FA089B04937A1B06D000E03A46D0
S31560004B700499504600F040FB04900121504600F035
S31560004B80A2FA0B9B05465BB31A460146504600F0F7
S31560004B9033FB1E9B0546012B18DC029B83B9039BE6
S31560004BA0C3F3130373B9039B23F000473F0D3F051F
S31560004BB04FB1079B08F1010801330793012702E013
S31560004BC0002700E0029F0B9B73B100E000272B6972
S31560004BD005EB8303186900F029FAC0F1200004E0B0
S31560004BE01E9B012BD9DD0B9F0120079B184410F0FB
S31560004BF01F0008D0C0F12003042B02DDC0F11C00A9
S31560004C0002E006D018461C30079B804403440444E7
S31560004C100793B8F1000F05DD42460499504600F04F
S31560004C202BFB0490079B002B05DD29461A46504650
S31560004C3000F022FB0546109B23B32946049800F03A
S31560004C406CFB00281EDA00230A220499504600F005
S31560004C50B2F90A9B0BF1FF3B0490002B00F05F81D9
S31560004C60314600230A22504600F0A5F9B9F1000F3B
S31560004C7006463FDC3BE000BF1864000000001440BD
S31560004C8000002440059B002B2BDC1E9B022B28DD9D
S31560004C90DDF81490B9F1000F11D129464B46052273
S31560004CA0504600F088F901460546049800F035FB49
S31560004CB000280CDC03E0354600E000252E461F9BED
S31560004CC0069C6FEA030B09E03546DDF820B0069BCB
S31560004CD0069A5C1C312313700BF1010B05960026B6
S31560004CE0F7E00A9BDDF8149023B9069CB2E01E9BA0
S31560004CF0022BCFDC002C05DD31462246504600F003
S31560004D00BBFA06469FB17168504600F025F9044625
S31560004D10326906F10C01023292000C30FEF7E9FAB4
S31560004D2001222146504600F0A7FA059000E005965C
S31560004D30029B069F03F00103079329460498FFF739
S31560004D40E7FA3146044600F13008049800F0E5FAC7
S31560004D50059A02902946504600F0FBFAC36802465F
S31560004D603BB901460A90049800F0D7FA0A9A0346BE
S31560004D7000E00123114650460A9300F013F90A9B9E
S31560004D8053B91E9A42B9079A32B9B8F1390F2AD087
S31560004D90029B002B1CDC1DE0029A002A04DB1BD15F
S31560004DA01E9ACAB9079ABAB9002B13DD0122049973
S31560004DB0504600F061FA2946049000F0AEFA0028E9
S31560004DC003DC07D118F0010F04D0B8F1390F0AD00F
S31560004DD004F131087C1C0CE0002B07F101040BDDAB
S31560004DE0B8F1390F03D139233B70013756E008F12A
S31560004DF0010887F800806CE0069B2746E31A4B455E
S31560004E0004F8018C3BD000230A220499504600F036
S31560004E10D2F8059B04909E424FF00A024FF00003C1
S31560004E203146504604D100F0C6F80646059084E740
S31560004E3000F0C1F8002306460A220599504600F0A4
S31560004E40BAF8059079E700230A220499504600F0E3
S31560004E50B2F8049029460498FFF75AFA069B00F1C7
S31560004E60300804F8018BE31A4B45ECDB069B05968C
S31560004E70B9F1010FACBF4B4401331F460026012236
S31560004E800499504600F0F8F92946049000F045FA76
S31560004E90002803DC15D118F0010F12D03C4614F837
S31560004EA0013C621E392B09D1069B934204D10BF15A
S31560004EB0010B3123069A02E01446F0E701331370C2
S31560004EC007E03C4614F8013C621E302B01D11446C3
S31560004ED0F8E72946504600F065F8059B6BB12EB1A0
S31560004EE09E4203D03146504600F05CF80599504624
S31560004EF000F058F801E0DDF820B00499504600F063
S31560004F0051F80023209A23700BF101031360229B52
S31560004F101BB11C6001E008480AE0069808E0B9F198
S31560004F20000F3FF7E2AE1E9B022B7FF7DEAEB1E6C7
S31560004F3015B0BDE8F08F00BFEC63000010B5C9B2D4
S31560004F4002449042034605D01C7801308C42F8D169
S31560004F50184610BD002010BDC36C70B505460C46E2
S31560004F603BB1EB6C53F8240060B1026843F824202F
S31560004F7014E021220421FDF7B4FDE8640028F0D195
S31560004F80002070BD012101FA04F6721D92002846C8
S31560004F90FDF7A7FD0028F3D0446086600023036117
S31560004FA0C36070BD31B1C36C4A6853F822000860B3
S31560004FB043F8221070472DE9F04106460C460D690C
S31560004FC01F4601F1140E0023DEF80000013381B2A2
S31560004FD002FB0171000C0F0C02FB007089B201EB41
S31560004FE000419D424FEA10474EF8041BECDCD7B1F6
S31560004FF0A3689D4212DB616830460131FFF7ACFF62
S315600050008046226904F10C01023292000C30FEF7F0
S3156000501070F921463046FFF7C5FF444604EB850329
S3156000502001355F6125612046BDE8F081030C1B04F4
S3156000503013B90004102300E0002310F07F4F04BF73
S315600050400002083310F0704F04BF0001043310F003
S31560005050404F04BF80000233002803DB420003D5C3
S31560005060581C70471846704720207047036813F035
S3156000507007020BD0D90722D49A074BBF5B089B085F
S31560005080036003604CBF01200220704799B209B9E2
S315600050901B0C102213F0FF0F04BF1B0A08321907FE
S315600050A004BF1B090432990704BF9B080232D90763
S315600050B002D45B0805D001320360104670470020B9
S315600050C070472020704710B50C460121FFF744FF5A
S315600050D001224461026110BD2DE9F74F14460A6949
S315600050E0236988469A42BEBF0B46A0461C46D8F83E
S315600050F01070D4F81090D8F80830D8F8041007EB80
S3156000510009069E42C8BF0131FFF726FF00F114056C
S315600051102B4605EB860C0022634502D243F8042B2E
S31560005120FAE704F1140208F1140102EB890301EBBA
S3156000513087070093009B0192934257D9B2F800B05B
S31560005140BBF1000F23D08946AE464FF0000859F8F0
S31560005150044BBEF800A0A3B20BFB03A34FEA144AAC
S31560005160DEF8004043444FEA14480BFB0A84F246DB
S3156000517004EB13449BB243EA04434F454FEA144899
S315600051804AF8043B01D9D646E1E7CEF80480019B94
S315600051900432B3F802A0BAF1000F21D02C4689463A
S315600051A02B684FF00008B9F800E0B4F802B09BB283
S315600051B00AFB0EBEA346F04443EA08434BF8043BA1
S315600051C059F8043BB4F804E01B0C0AFB03E34F45B3
S315600051D003EB18434FEA134801D95C46E3E7636083
S315600051E00435A7E75CF8043D13B9013E002EF9DCEF
S315600051F0066103B0BDE8F08F2DE9F843154612F05D
S31560005200030206460F4607D01A4C013A002354F8AB
S315600052102220FFF7D0FE0746AD1028D0B46C44B903
S3156000522040F271213046FFF74EFF04460023B0641A
S3156000523003604FF00008EB070AD539462246304630
S31560005240FFF74AFF814639463046FFF7ABFE4F46C9
S315600052506D100CD0206808B10446ECE72246214662
S315600052603046FFF739FF2060C0F80080F4E7384623
S31560005270BDE8F8830C6400002DE9F0470C4607464C
S31560005280914626694FEA621A56444968A368751CB6
S31560005290AB4202DA01315B00FAE73846FFF75CFEA3
S315600052A0002380461A4600F11401534503DA41F89B
S315600052B023200133F9E72AEAEA73206901EB8303C5
S315600052C019F01F0904F1140101EB800E14D0C9F125
S315600052D0200C002208689A4600FA09F0024343F857
S315600052E0042B51F8042B8E4522FA0CF2F2D8CAF838
S315600052F0042042B1B51C06E0043B51F8042B8E45F0
S3156000530043F8042FF9D8013D3846C8F810502146B5
S31560005310FFF748FE4046BDE8F08703690A6910B5A5
S315600053209B1A11D192001430143183180A4453F831
S31560005330044D52F8041D8C4202D007D3012010BDE3
S315600053409842F4D3002010BD184610BD4FF0FF30D0
S3156000535010BD2DE9F8430C46074611462046154612
S31560005360FFF7DBFF061E08D131463846FFF7F4FD2E
S31560005370012303614661BDE8F883BCBF23462C4622
S3156000538038466168BABF1D4601260026FFF7E4FD70
S315600053902B69C660266905F1140904F1140101EB55
S315600053A0860709EB830800F114054FF0000C51F8ED
S315600053B0042B59F8044B93B29C44A3B2240CC3EB60
S315600053C00C03C4EB124202EB23429BB24FEA224C1F
S315600053D0C84543EA02428E4645F8042BE7D8BE45E7
S315600053E00ED25EF8041B8AB26244131403EB1143B7
S315600053F092B242EA03424FEA234C45F8042BEEE7A9
S3156000540055F8043D0BB9013EFAE70661BDE8F8833D
S315600054102DE9F3411C4601219046089E099DFFF740
S315600054209BFDC4F31302C4F30A5407460CB142F45D
S3156000543080120192B8F1000F19D002A840F8088DC9
S31560005440FFF714FE009B48B1019AC0F1200102FAF1
S3156000545001F10B43C2407B61019200E07B61019BDD
S31560005460002B14BF02210121BB61396107E001A84D
S31560005470FFF7FCFD019B01217B613961203034B16E
S31560005480A4F2334404443460C0F1350009E0A0F26C
S31560005490324007EB810330601869FFF7C7FDC0EB48
S315600054A041102860384602B0BDE8F081034613F823
S315600054B0012B002AFBD1181A013870472DE9F74FE6
S315600054C09346926881460C464AB30023DBF800A0F7
S315600054D001931F4606E0DAF80030DAF804700193AB
S315600054E00AF1080A002FF6D0A668B74260D3A089F1
